:020000040800F2
:10000000F0070020D50100083B1C0008331C000845
:10001000371C0008B9040008D120000800000000C7
:10002000000000000000000000000000691C000843
:10003000BD040008000000003D1C00086B1C000807
:10004000EF010008EF010008EF010008EF010008D0
:10005000EF010008EF010008EF010008EF010008C0
:10006000EF010008EF010008EF010008EF010008B0
:10007000EF010008EF010008EF010008EF010008A0
:10008000EF010008EF010008EF010008EF01000890
:10009000EF010008EF010008EF010008EF01000880
:1000A000EF010008EF010008EF010008EF01000870
:1000B000EF010008EF010008EF010008EF01000860
:1000C000EF010008EF010008EF010008EF01000850
:1000D000EF010008C1200008EF010008EF0100084F
:1000E000EF010008EF010008EF010008EF01000830
:1000F000EF010008EF010008EF010008EF01000820
:10010000EF010008EF010008751C0008EF0100086E
:10011000EF010008EF010008EF010008EF010008FF
:10012000EF010008EF010008EF010008EF010008EF
:1001300000F002F800F03FF80AA090E8000C8244BA
:100140008344AAF10107DA4501D100F034F8AFF297
:10015000090EBAE80F0013F0010F18BFFB1A43F0A5
:100160000103184734AB000054AB0000103A24BF21
:1001700078C878C1FAD8520724BF30C830C144BF0C
:1001800004680C607047000000230024002500264E
:10019000103A28BF78C1FBD8520728BF30C148BFEA
:1001A0000B607047782900F07780002070471FB5FA
:1001B0001FBD10B510BD00F04DF91146FFF7F7FF58
:1001C00007F038FA00F06BF903B4FFF7F2FF03BC55
:1001D00001F09CFF0948804709480047FEE7FEE719
:1001E000FEE7FEE7FEE7FEE7FEE7FEE7FEE7FEE7E7
:1001F00004480549054A064B70470000731C000877
:1002000031010008F0010020F0070020F003002079
:10021000F0030020704700000FB4044910B503AA92
:10022000029800F0E9F810BC5DF814FB080000200B
:100230002DE9F0410E460446002020622046E16888
:10024000884730B3252805D0D4E901219047206A9A
:10025000401CF2E7E168204600278847050018D0D7
:10026000A5F14100192802D820354FF40067324625
:10027000294620462760FFF795FF40B1012804D0AA
:10028000F61D26F007060836D8E7361DD6E72846BD
:10029000DAE7206ABDE8F08170B504460D462146D4
:1002A0001068AFF300802188090502D50F4A7A440F
:1002B00002E00E4A7A440E32002104F1240305E0E4
:1002C00000F00F060009965D5E54491C0028F7D126
:1002D00020780023000704D5702D02D009B1022335
:1002E00011322046BDE8704000F02DB8BEA90000D4
:1002F0004FF0000200B5134694469646203922BFBF
:10030000A0E80C50A0E80C50B1F12001BFF4F7AF09
:10031000090728BFA0E80C5048BF0CC05DF804EBEB
:10032000890028BF40F8042B08BF704748BF20F859
:10033000022B11F0804F18BF00F8012B7047704757
:100340007047704770472DE9F0470D469946924631
:10035000044600F124080168880604D5E06921F00C
:100360001001216000E00120A84201DD471B00E0F0
:100370000027A1697A1902EB0900081AA061207808
:10038000C00602D42046AFF30080002608E0D4E97E
:1003900001211AF806009047206A401C761C206252
:1003A0004E45F4DB2078C0060AD52046AFF3008026
:1003B00006E0D4E9012130209047206A401C2062E9
:1003C000381EA7F10107F4DC07E0D4E9012118F891
:1003D00005009047206A401C2062281EA5F10105F7
:1003E000F3DC2046AFF300802078000602D502201F
:1003F000BDE8F0870120FBE7074B70B50D467B4455
:1004000000F011F80446284600F020F810B14FF033
:10041000FF3070BD204670BD771D000001694A1C89
:1004200002610878704700B58FB0CDE90131002135
:10043000059105497944CDE9031011466846FFF757
:10044000F7FE0FB000BD0000E5FFFFFF007B00F0EE
:1004500080007047754600F02BF8AE4605006946EF
:10046000534620F00700854618B020B5FFF7C0FEC0
:10047000BDE820404FF000064FF000074FF00008A5
:100480004FF0000B21F00701AC46ACE8C009ACE826
:10049000C009ACE8C009ACE8C0098D46704710B58A
:1004A0000446AFF300802046BDE81040FFF78CBE45
:1004B000004870479001002000BFFEE77047000031
:1004C00070B50446002594F82100022803D00420CA
:1004D000A0630125C1E02068006820F00E002168BB
:1004E00008602068006820F00100216808605C490D
:1004F0002068884252D95A4978392068884201D107
:10050000012047E0564964392068884201D1102013
:1005100040E0534950392068884201D1801539E0C4
:100520004F493C392068884201D1801432E04C495F
:1005300028392068884202D14FF480302AE04849A7
:1005400014392068884202D14FF4801022E04449D7
:100550002068884201D140041CE04249206888425A
:1005600001D1012016E03F4914312068884201D1B1
:1005700010200FE03B4928312068884201D18015C6
:1005800008E038493C312068884201D1801401E0FC
:100590004FF480303349091F086051E03049783901
:1005A0002068884201D1012047E02D496439206844
:1005B000884201D1102040E0294950392068884202
:1005C00001D1801539E026493C392068884201D1A3
:1005D000801432E0224928392068884202D14FF441
:1005E00080302AE01E4914392068884202D14FF435
:1005F000801022E01A492068884201D140041CE0A2
:1006000018492068884201D1012016E015491431AB
:100610002068884201D110200FE01249283120685B
:10062000884201D1801508E00E493C31206888429B
:1006300001D1801401E04FF48030094980394860CD
:10064000012084F8210000BF002084F8200000BFB2
:10065000606B10B12046616B8847284670BD000072
:1006600080000240080402402DE9F84702460023BA
:100670009C467BE14FF0010808FA03F4D1F80080B2
:1006800008EA0400A0427DD1DFF8F4A2D1F804808A
:10069000A8EB0A09D0453AD014DCB8F1030F50D0CA
:1006A00009DCB8F1000F31D0B8F1010F1CD0B8F15E
:1006B000020F49D120E0B8F1110F18D0B8F1120F94
:1006C00042D11EE0B9F5881F25D006DCB9F5803F80
:1006D00020D0B9F5801F37D11AE0B9F5001F18D026
:1006E000B9F5041F30D117E0D1F80CC02DE0D1F8D6
:1006F0000C8008F1040C28E0D1F80C8008F1080CFB
:1007000023E0D1F80C8008F10C0C1EE000BF00BF04
:1007100000BF00BF00BF00BFD1F80880B8F1000FD4
:1007200002D14FF0040C0BE0D1F80880B8F1010FB2
:1007300003D14FF0080C146102E04FF0080C546133
:1007400003E04FF0000C00E000BF00BFFF2801D81D
:10075000904601E002F104084646FF2802D84FEA1D
:10076000830803E0A3F108084FEA88084746D6F853
:1007700000804FF00F0909FA07F928EA09080CFA76
:1007800007F900E07AE048EA0908C6F80080D1F8E5
:10079000048008F08058B8F1805F6FD100BFDFF8A7
:1007A000E481D8F8188048F00108DFF8D891C9F83A
:1007B0001880C846D8F8188008F00108CDF80080E5
:1007C00000BF00BF4FEAB9384FEA930958F82950E3
:1007D0004FEA83784FEA18794FF00F0808FA09F8C2
:1007E00025EA0805DFF8A081424502D14FF0000854
:1007F00024E0DFF89881424502D14FF001081DE066
:10080000DFF88C81424502D14FF0020816E0DFF894
:100810008481424502D14FF003080FE0DFF8788170
:10082000424502D14FF0040808E0DFF870814245EC
:1008300002D14FF0050801E04FF006084FEA837936
:100840004FEA197908FA09F848EA0505DFF85081F6
:100850004FEA930948F82950D1F8048008F4803809
:10086000B8F5803F0BD1DFF83C81D8F8008048EA2A
:100870000008DFF83091C9F800800AE075E0DFF881
:100880002481D8F8008028EA0008DFF81891C9F818
:100890000080D1F8048008F40038B8F5003F0ED18C
:1008A000DFF8008108F10408D8F8008048EA000861
:1008B000DFF8F09009F10409C9F800800DE0DFF8D5
:1008C000E48008F10408D8F8008028EA0008DFF87E
:1008D000D49009F10409C9F80080D1F8048008F423
:1008E0008018B8F5801F0ED1DFF8B88008F108082D
:1008F000D8F8008048EA0008DFF8A89009F1080954
:10090000C9F800800DE0DFF89C8008F10808D8F8ED
:10091000008028EA0008DFF88C9009F10809C9F87E
:100920000080D1F8048008F40018B8F5001F0ED13B
:10093000DFF8708008F10C08D8F8008048EA000859
:10094000DFF8609009F10C09C9F800800DE0DFF8CC
:10095000548008F10C08D8F8008028EA0008DFF875
:10096000449009F10C09C9F800805B1CD1F80080A3
:1009700028FA03F8B8F1000F7FF47CAEBDE8F887E1
:10098000000011100010024000080140000C01405E
:10099000001001400014014000180140001C0140FB
:1009A0000800014000040140024693680B400BB16F
:1009B000012000E00020704710B5C26821EA020360
:1009C00002EA010443EA0443036110BD0AB1016174
:1009D00001E00B04036170470148006870470000A4
:1009E00010000020034800680349097808440149C1
:1009F00008607047100000201800002010B508485B
:100A0000006840F0100006490860052000F080F8FA
:100A10000F2000F007F800F02BF8002010BD0000B8
:100A20000020024070B504460E4800784FF47A71F9
:100A3000B1FBF0F00C490968B1FBF0F5284600F075
:100A4000E3FB08B1012070BD102C07D20022214623
:100A5000501E00F01EF80548046001E00120F2E796
:100A60000020F0E718000020000000201400002003
:100A7000704701460846002809DB00F01F030122E9
:100A80009A4043099B0003F1E023C3F8002100BF13
:100A900070472DE9F05F80460D461646002701F0AD
:100AA00019FB074639462A46334601F00700C0F1D4
:100AB000070ABAF1040F02D94FF0040A01E0C0F1AD
:100AC000070AD14600F1040ABAF1070F02D24FF02B
:100AD000000A01E0A0F1030AD4464FF0010A0AFA25
:100AE00009FAAAF1010A0AEA020A0AFA0CFA4FF014
:100AF000010B0BFA0CFBABF1010B0BEA030B4AEAFF
:100B00000B042146404601F0EDFABDE8F09F0000DD
:100B100000BF00F00702064B19684FF6FF031940AB
:100B2000044B0B4343EA0221014B196000BF70479D
:100B30000CED00E00000FA0570B504460D460CB956
:100B4000012070BD5A48006800F00700A8420ED28C
:100B50005748006820F007002843554908600846B8
:100B6000006800F00700A84201D00120E9E72078E2
:100B700000F0020002281DD1207800F004000428B3
:100B800005D14C48406840F4E0604A49486020780C
:100B900000F00800082805D14648406840F460503D
:100BA000444948604348406820F0F000A168084389
:100BB00040494860207800F0010078B3606801285F
:100BC00006D13C48006800F4003090B90120B8E735
:100BD0006068022806D13748006800F0007040B90C
:100BE0000120AEE73348006800F0020008B9012098
:100BF000A7E73048406820F00300616808432D49AA
:100C00004860FFF7E9FE064609E0FFF7E5FE801BB6
:100C100041F28831884202D9032092E707E0254853
:100C2000406800F00C006168B0EB810FEDD1204806
:100C3000006800F00700A8420ED91D48006820F0A7
:100C4000070028431A4908600846006800F00700BA
:100C5000A84201D0012074E7207800F004000428A5
:100C600007D11448406820F4E060E1680843114966
:100C70004860207800F00800082808D10D48406836
:100C800020F46050216940EAC1000A49486000F040
:100C90003FF808494968C1F30311074A515CC8404D
:100CA0000649086006480068FFF7BCFE002048E7D8
:100CB0000020024000100240D87C00080000002004
:100CC0001400002001480068704700000000002068
:100CD00000B5FFF7F7FF04494968C1F30221034A51
:100CE000515CC84000BD000000100240E87C0008D4
:100CF00000B5FFF7E7FF04494968C1F3C221034A81
:100D0000515CC84000BD000000100240E87C0008B3
:100D1000F0B585B00FF26C0C9CE8E01001A8A0E8DB
:100D2000E0101CA52D68009500210022002300245E
:100D30000020194D696801F00C05F5B1042D02D0B1
:100D4000082D19D101E0154819E001ADC1F3834622
:100D5000AC5D01F4803555B10F4D6D68C5F340456C
:100D60001DF805200D4D6543B5FBF2F302E00C4D77
:100D700004FB05F3184602E000BF084800BF00BFAF
:100D800005B0F0BD02030405060708090A0B0C0DA7
:100D90000E0F1010010200000010024000127A0035
:100DA00000093D00F8B504460CB90120F8BD2078D3
:100DB00000F00100002878D0F848406800F00C00EE
:100DC00004280CD0F548406800F00C00082811D128
:100DD000F248406800F48030B0F5803F0AD1EF4817
:100DE000006800F4003000285FD0606800285CD103
:100DF0000120DBE700BF6068B0F5803F06D1E7481F
:100E0000006840F48030E549086028E0606858B91F
:100E1000E248006820F48030E04908600846006835
:100E200020F4802008601AE06068B0F5A02F0BD194
:100E3000DA48006840F48020D84908600846006815
:100E400040F4803008600AE0D448006820F4803024
:100E5000D24908600846006820F48020086000BF7E
:100E6000606888B1FFF7B8FD054606E0FFF7B4FDFE
:100E7000401B642801D9032098E7C848006800F4A3
:100E800000300028F2D010E0FFF7A6FD054606E08E
:100E9000FFF7A2FD401B642801D9032086E7BF4865
:100EA000006800F400300028F2D1207800F0020041
:100EB000022857D1B948406800F00C0050B1B7483B
:100EC000406800F00C00082818D1B448406800F4CD
:100ED000803098B9B148006800F0020020B1206964
:100EE000012801D0012061E7AC48006820F0F8003B
:100EF000616940EAC100A949086033E02069E8B1AE
:100F00000120A7490860FFF767FD054606E0FFF7E7
:100F100063FD401B022801D9032047E79F48006872
:100F200000F002000028F2D09C48006820F0F80091
:100F3000616940EAC1009949086013E000209849BE
:100F40000860FFF749FD054606E0FFF745FD401B39
:100F5000022801D9032029E79048006800F0020028
:100F60000028F2D1207800F0080008282DD1A069CF
:100F7000B8B101208B490860FFF72EFD054606E059
:100F8000FFF72AFD401B022801D903200EE7834802
:100F9000406A00F002000028F2D0012000F050FE6C
:100FA00013E000207F490860FFF716FD054606E0C4
:100FB000FFF712FD401B022801D90320F6E677480F
:100FC000406A00F002000028F2D1207800F004000E
:100FD000042873D100277148C06900F0805070B9AF
:100FE00000BF6E48C06940F080506C49C861084637
:100FF000C06900F08050009000BF00BF01276A4820
:10100000006800F48070B0B96748006840F48070F0
:1010100065490860FFF7E0FC054606E0FFF7DCFCE9
:10102000401B642801D90320C0E65F48006800F433
:1010300080700028F2D000BFE068012806D1574830
:10104000006A40F001005549086227E0E06858B99D
:101050005248006A20F00100504908620846006AC0
:1010600020F00400086219E0E06805280BD14B4825
:10107000006A40F00400494908620846006A40F0EE
:10108000010008620AE04548006A20F00100434977
:1010900008620846006A20F00400086200BFE068A9
:1010A000A0B1FFF799FC054609E0FFF795FC401B4E
:1010B00041F28831884202D9032077E622E037489E
:1010C000006A00F002000028EFD012E0FFF784FC75
:1010D000054608E0FFF780FC401B41F2883188425A
:1010E00001D9032062E62D48006A00F002000028C2
:1010F000F0D1012F05D12948C06920F0805027493F
:10110000C86100BFE069C8B32448406800F00C0023
:10111000082860D0E069022848D1002020490866EC
:10112000FFF75AFC054606E0FFF756FC401B022875
:1011300001D903203AE61948006800F00070002841
:10114000F2D1206AB0F5803F07D11448406820F4FE
:101150000030A168084311494860D4E908010843F8
:101160000E49496821F4741108430C494860012074
:101170000B490866FFF730FC054607E03DE0FFF746
:101180002BFC401B022801D903200FE6034800680E
:1011900000F000700028F2D02FE0000000100240A4
:1011A0000000424280044242007000400020144986
:1011B0000866FFF711FC054606E0FFF70DFC401B33
:1011C000022801D90320F1E50E48006800F0007004
:1011D0000028F2D111E0E069012800D1E6E50948D4
:1011E000466806F48031206A814204D106F4701109
:1011F000606A814201D00120D8E50020D6E50000D8
:10120000000042420010024070B504462546681EA8
:10121000B0F1807F01D301200FE0681E4FF0E02184
:1012200048610F214FF0FF3000F05CFF00204FF0CD
:10123000E021886107200861002070BD7047704779
:1012400070B505464A492868884276D10221494846
:10125000FFF7AAFBE0B100BF47480068006A20F032
:10126000A00045490968086243480068006A40F0E8
:10127000200041490968086200BF00203E49096812
:1012800048623E48007840F010003C4908706DE02C
:101290000421394800F0ECFA84B200BF36480068F7
:1012A000006A20F0A00034490968086232480068EA
:1012B000006A31490968086200BF3048007800F0D0
:1012C000100000284CD02D48007800F08000A8B312
:1012D000B4F5967F0DDDB4F5487F0ADA284800683A
:1012E0004008274908600846006820F00040086070
:1012F00036E0B4F5AF6F0DDDB4F5E16F0ADA2048E2
:10130000006840081E4908600846006840F0004038
:10131000086025E0B4F5FA6F22DD40F6B83084426B
:101320001EDA18480078401C1649087013480078E7
:1013300000F0F0001149087012E018E0FFE741F2F8
:10134000680084420CDD41F25C20844208DA0B48DC
:10135000007840F0800009490870002009490870B1
:101360000648007820F010000449087000BF70BDE6
:10137000000C00400008014048010020240000202B
:10138000280000202C0000202DE9F04104460D46E5
:10139000164600BF94F83C00012802D10220BDE8A7
:1013A000F081012084F83C0000BF96B9EB68D5E9D4
:1013B0000012206800F0C6FC2068806920F00C0054
:1013C0002168886120688069A9680843216888616C
:1013D0003DE0042E13D1EB68D5E90012206800F03F
:1013E000EFFC2068806920F44060216888612068F3
:1013F0008069A96840EA01202168886127E0082EF9
:1014000012D1EB68D5E90012206800F0F6FC2068E4
:10141000C06920F00C002168C8612068C069A96813
:1014200008432168C86112E0EB68D5E90012206822
:1014300000F0FFFC2068C06920F440602168C861AA
:101440002068C069A96840EA01202168C86100BF1E
:10145000002084F83C0000BF00BFA0E710B50446A0
:101460000CB9012010BD94F83D0028B9002084F883
:101470003C00204600F026F8022084F83D00211DA3
:10148000206800F0FFFB012084F8460000BF84F8CC
:101490003E0001213F2001554020015541200155CA
:1014A00000BF00BF012084F84200432001554420C2
:1014B00001554520015500BF012084F83D00002062
:1014C000D0E7000010B586B004461D492068884268
:1014D00033D100BF00BF1B48806940F004001949A8
:1014E00088610846806900F00400019000BF00BFD9
:1014F00000BF00BF00BF0846C06940F00800C861D7
:101500000846C06900F00800019000BF00BF00BF9E
:1015100002200290002003900120049003200590F7
:1015200002A90948FFF7A0F8032201213220FFF7A2
:10153000B0FA3220FFF79DFA00BF06B010BD0000E0
:10154000000C0040001002400008014070B5044645
:101550000D461DB9022084F83E000EE0042D03D193
:1015600002213F20015508E0082D03D1022140202F
:10157000015502E00221412001551DB9022084F8E5
:1015800042000EE0042D03D102214320015508E062
:10159000082D03D102214420015502E002214520FB
:1015A000015535B1042D0BD0082D10D00C2D1CD1B8
:1015B00014E02068C06840F002002168C86015E0AF
:1015C0002068C06840F004002168C8600EE0206810
:1015D000C06840F008002168C86007E02068C06863
:1015E00040F010002168C86000E000BF00BF012289
:1015F0002946206800F094FB16492068884213D0E1
:101600001549206888420FD02068B0F1804F0BD078
:1016100012492068884207D011492068884203D0C7
:101620001049206888420CD12068806800F00706C5
:10163000062E0CD02068006840F001002168086088
:1016400005E02068006840F0010021680860002083
:1016500070BD0000002C0140003401400004004037
:1016600000080040000C004010B5044620680069E6
:10167000C0F34000D8B12068C068C0F34000B0B1EA
:101680006FF00200216808610120207720688069DE
:1016900000F0030018B12046FFF7D2FD05E0204618
:1016A00000F0ADF8204600F0ABF80020207720686D
:1016B0000069C0F38000D8B12068C068C0F3800022
:1016C000B0B16FF004002168086102202077206823
:1016D000806900F4407018B12046FFF7B1FD05E0C5
:1016E000204600F08CF8204600F08AF80020207791
:1016F00020680069C0F3C000D8B12068C068C0F39A
:10170000C000B0B16FF008002168086104202077A4
:101710002068C06900F0030018B12046FFF790FD73
:1017200005E0204600F06BF8204600F069F8002044
:10173000207720680069C0F30010D8B12068C06825
:10174000C0F30010B0B16FF01000216808610820EC
:1017500020772068C06900F4407018B12046FFF778
:101760006FFD05E0204600F04AF8204600F048F8FA
:10177000002020772068006900F0010058B120683F
:10178000C06800F0010030B16FF00100216808610D
:10179000204600F037F820680069C0F3C01058B147
:1017A0002068C068C0F3C01030B16FF080002168BD
:1017B00008612046FFF742FD20680069C0F38010F1
:1017C00058B12068C068C0F3801030B16FF040009D
:1017D00021680861204600F064F820680069C0F3C1
:1017E000401058B12068C068C0F3401030B16FF0AD
:1017F0002000216808612046FFF721FD10BD7047D9
:1018000070470000184A016891422BD117490978A6
:1018100001F0800131B31549097821F01001134A14
:1018200011701146097801F00F0121B911460978AC
:1018300041F0400111700D49097801F00F010E29A6
:1018400005DA0A490978491C084A11700AE0074973
:10185000097821F08001054A11701146097801F0DC
:10186000F001117070470000000C004024000020BF
:101870000246002031B1042907D0082908D00C29DC
:101880000CD108E01368586B09E01368986B06E008
:101890001368D86B03E01368186C00E000BF00BF4A
:1018A00070477047704700002DE9F04704462068F4
:1018B00005682068C668206847694FF00008C1467F
:1018C00005F00F08B8F1000F0AD105F0200038B17B
:1018D00006F0200020B1204600F0F3FABDE8F087C2
:1018E000B8F1000F71D007F0010018B906F490703C
:1018F00000286AD005F0010030B106F4807018B1FC
:10190000E06B40F00100E06305F0040030B107F047
:10191000010018B1E06B40F00200E06305F0020046
:1019200030B107F0010018B1E06B40F00400E06353
:1019300005F0080048B106F0200010B907F00100DA
:1019400018B1E06B40F00800E063E06B68B305F0AD
:10195000200028B106F0200010B1204600F0B1FAB6
:1019600020684069C0F38019E06B00F0080010B9EE
:10197000B9F1000F22D0204600F083FA20684069B8
:1019800000F04000B0B12068406920F040002168BC
:101990004861606B50B11848616B4863606BFEF73B
:1019A0008FFD10B1606B416B88470CE02046FFF75C
:1019B00079FF08E02046FFF775FF04E02046FFF7B7
:1019C00071FF0020E06389E7FFE705F0800030B198
:1019D00006F0800018B1204600F042FB7EE705F0DB
:1019E000400030B106F0400018B1204600F059FA2E
:1019F00074E700BF72E700006F1E000810B50446D0
:101A00000CB9012010BDA06900B100E000BF94F83E
:101A1000390028B9002084F83800204600F028F862
:101A2000242084F839002068C06820F40050216820
:101A3000C860204600F096FA2068006920F49040C3
:101A4000216808612068406920F02A002168486107
:101A50002068C06840F400502168C8600020E0633E
:101A6000202084F8390084F83A000020CAE70000FA
:101A700010B586B004462849206888424AD100BF84
:101A800000BF2648806940F0040024498861084668
:101A9000806900F00400019000BF00BF00BF00BFDC
:101AA00000BF0846806940F00400886108468069EC
:101AB00000F00400019000BF00BF00BF00BF00BFE6
:101AC0000846806940F4804088610846806900F4D7
:101AD0008040019000BF00BF00BF48150290022067
:101AE0000390012004900320059002A90C48FEF702
:101AF000BBFD4FF4806002900020039002A90848CB
:101B0000FEF7B2FD2520FEF7B4FF03221146252083
:101B1000FEF7BFFF06B010BD0038014000100240C4
:101B20000008014010B5034693F83A0020282FD151
:101B300001B10AB9012010BD00BF93F83800012897
:101B400001D10220F7E7012083F8380000BF996235
:101B50009A85DA850020D863222083F83A0000BFF6
:101B6000002083F8380000BF1868C06840F4807017
:101B70001C68E0601868406940F001001C68606102
:101B80001868C06840F020001C68E0600020D2E7C0
:101B90000220D0E710B504462049206888423BD196
:101BA0001F48008800F4004088BB1D48008800F4EE
:101BB000804070B11B4800780A2803D000201849E3
:101BC000088024E01648008840F40040144908804A
:101BD0001DE0144800780D2806D11148008840F413
:101BE00080400F49088012E00E4800780C490988AF
:101BF000C1F30D010C4A505409480088401C0849A3
:101C0000088008460088C72801DD002008800122DE
:101C100004490648FFF786FF10BD00000038014068
:101C20000C0000200E00002030000020F8000020F2
:101C3000704700BFFEE700BFFEE770477047000037
:101C400008B508490968C9084FF47A72B1FBF2F186
:101C50004143009100BF00BF00994A1E0092002935
:101C6000F9D108BD00000020704710B5FEF7BAFE9C
:101C700010BD704710B50248FFF7F6FC10BD00001C
:101C80004801002010B50268204B98420ED0204B2E
:101C900098420BD0B0F1804F08D01E4B984205D02F
:101CA0001D4B984202D01D4B984203D122F0700286
:101CB0004B681A43154B98420ED0154B98420BD0E7
:101CC000B0F1804F08D0134B984205D0124B984288
:101CD00002D0124B984203D122F44072CB681A43CF
:101CE00022F080034C6943EA040202608B68C362FD
:101CF0000B688362054B984202D0054B984201D194
:101D00000B6903630123436110BD0000002C0140F7
:101D1000003401400004004000080040000C004076
:101D200030B501F01F05012404FA05F3046A9C4351
:101D30000462046A01F01F0502FA05F52C430462EF
:101D400030BD000070B50C461546066A26F0010647
:101D500006628169026A154EB0420ED0144EB0423E
:101D60000BD0B0F1804F08D0124EB04205D0124EC9
:101D7000B04202D0114EB04201D1012600E000264F
:101D80001EB121F00301294301E041F0010121F0DE
:101D9000F001F02606EA0316314322F00A0204F0AD
:101DA0000A0632438161026270BD0000002C0140CE
:101DB000003401400004004000080040000C0040D6
:101DC00070B50C461546066A26F010060662816953
:101DD000026A21F4407141EA052121F470414FF477
:101DE000704606EA0336314322F0A002A02606EA36
:101DF000041632438161026270BD70B50C4615460F
:101E0000066A26F480760662C169026A21F003013F
:101E1000294321F0F001F02606EA0316314322F4AB
:101E200000724FF4007606EA04263243C161026272
:101E300070BD70B50C461546066A26F480560662DB
:101E4000C169026A21F4407141EA052121F470411F
:101E50004FF4704606EA0336314322F400524FF441
:101E6000005606EA04363243C161026270BD70B5A5
:101E700005466C6A0020E085E0842046FFF712FDED
:101E800070BD0168C96821F490710268D160016871
:101E9000496921F0010102685161202180F83A105E
:101EA000704710B504462068C06820F040002168E3
:101EB000C860202084F839002046FFF7B9FE0020D2
:101EC00010BD70B5044694F83A00222847D1A068A6
:101ED000B0F5805F0CD1206950B90025A66A206852
:101EE0004068C0F308003080A06A801CA06215E042
:101EF000A56A0026A068B0F5805F03D0A06828B965
:101F0000206918B920684068287004E0206840689B
:101F100000F07F002870A06A401CA062E08D401E87
:101F200080B2E085C8B92068C06820F02000216830
:101F3000C8602068C06820F480702168C86020688C
:101F4000406920F0010021684861202084F83A00AF
:101F50002046FFF71FFE002070BD0020FCE7022096
:101F6000FAE7000070B504462168096921F4405180
:101F7000E2681143226811612269A1681143626914
:101F800041EA02052168C96841F20C629143294384
:101F90002268D1602168496921F44071A269114326
:101FA000226851612D4A2168914202D1FEF7A0FEBC
:101FB00001E0FEF78DFE00EBC00101EB001162684D
:101FC0009200B1FBF2F100EBC00202EB0012636879
:101FD0009B00B2FBF3F26423B2FBF3F202EBC20309
:101FE00003EB0212A1EB8201322202EB0111642207
:101FF000B1FBF2F101F0F00100EBC00202EB0012C4
:1020000063689B00B2FBF3F26423B2FBF3F201EBD3
:10201000021200EBC00101EB001163689B00B1FBF1
:10202000F3F100EBC00303EB00136668B600B3FBEB
:10203000F6F36426B3FBF6F303EBC30606EB0313D8
:10204000A1EB8301322303EB01116423B1FBF3F114
:1020500001F00F0111442268916070BD0038014009
:10206000014691F83900212828D18868B0F5805FB1
:102070000BD1086948B90A6A1088C0F308000B68D8
:102080005860086A801C086205E00B6A581C0862E8
:1020900018780B685860C88C401E80B2C88458B944
:1020A0000868C06820F080000B68D8600868C068C5
:1020B00040F040000B68D860002070470220FCE729
:1020C00010B50248FFF7F0FB10BD0000F80000203B
:1020D00000BFFEE702480068C0F30220704700001E
:1020E0000CED00E010B5002804DB0A07130E054ACA
:1020F000135406E00A07140E034A00F00F031B1FD7
:10210000D45410BD00E400E018ED00E000BF7047BB
:1021100001490860704700000400002010B5044623
:102120004FF47A7104FB01F000F002F810BD0000DA
:1021300070B5034600224FF0E02675690D4E3668F3
:1021400003FB06F44FF0E026B16910E04FF0E02603
:10215000B06988420BD0884202D20E1A324402E0A3
:102160002E1A0E4432440146A24200D300E0EDE7AD
:1021700000BF70BD0400002000BF054A126802F0D5
:102180004002002AF9D0C2B2014B1B1D1A607047F1
:102190000038014078B5044600261B480588408871
:1021A00045430021084604F0F3FD00BF16480089AE
:1021B00000904FF080701549086140000861BDF83B
:1021C0000000134908604FF40000104908618020A6
:1021D00008618000086100BF00BF40100861400432
:1021E000086100BF08E00A4804604FF40000074996
:1021F000086180200861761CAE42F4D34FF4007071
:102200000249086178BD000038010020001001403B
:102210000C0C014010B5044658488471002C58D16C
:10222000F020564908804FF4A07048800846808806
:1022300045F21051884210D14FF430504F49088177
:102240004FF4285048814FF42C5088814FF4F0709F
:1022500008804FF4487048801AE04848808841F66A
:10226000631188420DD12C20444908812B204881DC
:102270002A2088814FF4F07008804FF4487048801D
:1022800006E02C203D4908812A2048812B208881A6
:102290003A48808845F21031884205D03748808816
:1022A00047F29671884206D14FF4A07033490880F6
:1022B0004FF4F07048803148808849F60601884222
:1022C00058D14FF4F0702D4908804FF44870488081
:1022D00050E04FF4A07029490880F020488008465B
:1022E000808845F21051884210D14FF43050234974
:1022F00008814FF4285048814FF42C5088814FF4C6
:10230000487008804FF4F070488020E01B488088B7
:1023100041F66311884205D01848808849F60601C5
:1023200088420DD12C20154908812A2048812B2074
:1023300088814FF4487008804FF4F070488006E0C0
:102340002C200E4908812A2048812B2088810B48A7
:10235000808845F21031884205D00848808847F2CD
:102360009671884206D14FF4F070044908804FF40A
:10237000A0704880002004F077FA10BD38010020DA
:1023800078B505460E4614463146284604F000FD51
:1023900000BF1248008900904FF08070104908611A
:1023A00040000861BDF800000E4908604FF40000CD
:1023B0000B490861802008618000086100BF00BFF0
:1023C0004010086140040861064804604FF40000B2
:1023D0000861802008618000086178BD3801002014
:1023E000001001400C0C014008B5CF2000904FF0C8
:1023F0008070FE49086140000861BDF80000FC499A
:1024000008604FF40000F9490861802008618000ED
:10241000086100BF002005F089F8C12005F086F8AA
:10242000302005F083F8ED2000904FF08070EF49E8
:10243000086140000861BDF80000ED4908604FF4F4
:102440000000EA490861802008618000086100BF3F
:10245000642005F06BF8032005F068F8122005F001
:1024600065F8812005F062F8E82000904FF0807058
:10247000DE49086140000861BDF80000DC490860E1
:102480004FF40000D949086180200861800008618C
:1024900000BF852005F04AF8102005F047F87A20A3
:1024A00005F044F8CB2000904FF08070CF490861D0
:1024B00040000861BDF80000CD4908604FF40000FD
:1024C000CA490861802008618000086100BF392086
:1024D00005F02CF82C2005F029F8002005F026F84E
:1024E000342005F023F8022005F020F8F7200090B2
:1024F0004FF08070BD49086140000861BDF80000E0
:10250000BB4908604FF40000B849086180200861A9
:102510008000086100BF202005F008F8EA20009044
:102520004FF08070B149086140000861BDF80000BB
:10253000AF4908604FF40000AC4908618020086191
:102540008000086100BF002004F0F0FF002004F0CC
:10255000EDFFC02000904FF08070A449086140005A
:102560000861BDF80000A24908604FF400009F49CF
:102570000861802008618000086100BF1B2004F012
:10258000D5FFC12000904FF080709849086140004D
:102590000861BDF80000964908604FF400009349B7
:1025A0000861802008618000086100BF012004F0FC
:1025B000BDFFC52000904FF080708C49086140003D
:1025C0000861BDF800008A4908604FF4000087499F
:1025D0000861802008618000086100BF302004F09D
:1025E000A5FF302004F0A2FFC72000904FF08070BC
:1025F0007E49086140000861BDF800007C49086020
:102600004FF400007949086180200861800008616A
:1026100000BFB72004F08AFF362000904FF0807092
:102620007249086140000861BDF800007049086007
:102630004FF400006D490861802008618000086146
:1026400000BF482004F072FF3A2000904FF08070E5
:102650006649086140000861BDF8000064490860EF
:102660004FF4000061490861802008618000086122
:1026700000BF552004F05AFFB12000904FF0807049
:102680005A49086140000861BDF8000058490860D7
:102690004FF40000554908618020086180000861FE
:1026A00000BF002004F042FF1A2004F03FFFB620D4
:1026B00000904FF080704D49086140000861BDF8FE
:1026C00000004B4908604FF4000048490861802031
:1026D00008618000086100BF0A2004F027FFA220E3
:1026E00004F024FFF22000904FF080703F49086111
:1026F00040000861BDF800003D4908604FF400004B
:102700003A490861802008618000086100BF00200C
:1027100004F00CFF262000904FF0807033490861D0
:1027200040000861BDF80000314908604FF4000026
:102730002E490861802008618000086100BF0120E7
:1027400004F0F4FEE02000904FF08070274908610B
:1027500040000861BDF80000254908604FF4000002
:1027600022490861802008618000086100BF0F20B5
:1027700004F0DCFE2A2004F0D9FE282004F0D6FE66
:10278000082004F0D3FE0E2004F0D0FE082004F050
:10279000CDFE542004F0CAFEA92004F0C7FE432059
:1027A00004F0C4FE0A2004F0C1FE0F2004F0BEFEB7
:1027B000002004F0BBFE002004F0B8FE002004F06E
:1027C000B5FE002004F0B2FEE12000904FF08070D2
:1027D0000649086140000861BDF80000044908602E
:1027E0004FF4000001490861802003E0001001401F
:1027F0000C0C014008618000086100BF002004F05B
:1028000095FE152004F092FE172004F08FFE07209D
:1028100004F08CFE112004F089FE062004F086FEF0
:102820002B2004F083FE562004F080FE3C2004F0B0
:102830007DFE052004F07AFE102004F077FE0F20C4
:1028400004F074FE3F2004F071FE3F2004F06EFEA1
:102850000F2004F06BFE2B2000904FF08070364963
:10286000086140000861BDF80000344908604FF479
:10287000000031490861802008618000086100BFC4
:10288000002004F053FE002004F050FE012004F06C
:102890004DFE3F2004F04AFE2A2000904FF0807049
:1028A0002549086140000861BDF80000234908601F
:1028B0004FF4000020490861802008618000086111
:1028C00000BF002004F032FE002004F02FFE0020A4
:1028D00004F02CFEEF2004F029FE112000904FF0B0
:1028E00080701549086140000861BDF80000134977
:1028F00008604FF4000010490861802008618000E2
:10290000086100BF7820FFF709FC292000904FF0F4
:1029100080700949086140000861BDF8000007495E
:1029200008604FF4000004490861802008618000BD
:10293000086100BF08BD0000001001400C0C014000
:1029400008B5FF2000904FF08070FE4908614000FC
:102950000861BDF80000FC4908604FF40000F94927
:102960000861802008618000086100BFFF2004F03A
:10297000DDFD982004F0DAFD062004F0D7FDBC2030
:1029800000904FF08070EF49086140000861BDF889
:102990000000ED4908604FF40000EA49086180201A
:1029A00008618000086100BF012004F0BFFD0F2016
:1029B00004F0BCFD612004F0B9FDFF2004F0B6FD79
:1029C000012004F0B3FD012004F0B0FD0B2004F061
:1029D000ADFD102004F0AAFD372004F0A7FD632010
:1029E00004F0A4FDFF2004F0A1FDFF2004F09EFDF3
:1029F000012004F09BFD012004F098FD002004F06C
:102A000095FD002004F092FDFF2004F08FFD522080
:102A100004F08CFD012004F089FD002004F086FD07
:102A2000402004F083FDBD2000904FF08070C54928
:102A3000086140000861BDF80000C34908604FF418
:102A40000000C0490861802008618000086100BF63
:102A5000012004F06BFD232004F068FD452004F004
:102A600065FD672004F062FD012004F05FFD232076
:102A700004F05CFD452004F059FD672004F056FD8C
:102A8000BE2000904FF08070AE49086140000861A0
:102A9000BDF80000AC4908604FF40000A949086186
:102AA000802008618000086100BF002004F03EFD26
:102AB000012004F03BFDAB2004F038FD602004F061
:102AC00035FD222004F032FD222004F02FFD2220CB
:102AD00004F02CFD222004F029FD222004F026FD24
:102AE000C72000904FF0807096490861400008614F
:102AF000BDF80000944908604FF400009149086156
:102B0000802008618000086100BF362004F00EFDBF
:102B1000ED2000904FF080708A4908614000086104
:102B2000BDF80000884908604FF40000854908613D
:102B3000802008618000086100BF7F2004F0F6FC5F
:102B40000F2004F0F3FCC02000904FF080707D490E
:102B5000086140000861BDF800007B4908604FF43F
:102B6000000078490861802008618000086100BF8A
:102B70000F2004F0DBFC0B2004F0D8FC0A2004F04A
:102B8000D5FCFC2000904FF080706E490861400039
:102B90000861BDF800006C4908604FF40000694905
:102BA0000861802008618000086100BF082004F0EF
:102BB000BDFCDF2000904FF080706249086140004A
:102BC0000861BDF80000604908604FF400005D49ED
:102BD0000861802008618000086100BF002004F0C7
:102BE000A5FC002004F0A2FC002004F09FFC0020C3
:102BF00004F09CFC002004F099FC202004F096FCDA
:102C0000F32000904FF080704E4908614000086149
:102C1000BDF800004C4908604FF4000049490861C4
:102C2000802008618000086100BF742004F07EFCF1
:102C3000B42000904FF08070424908614000086164
:102C4000BDF80000404908604FF400003D490861AC
:102C5000802008618000086100BF002004F066FC4D
:102C6000002004F063FC002004F060FCF7200090DA
:102C70004FF080703349086140000861BDF80000E2
:102C8000314908604FF400002E4908618020086136
:102C90008000086100BF822004F048FCB120009051
:102CA0004FF080702749086140000861BDF80000BE
:102CB000254908604FF4000022490861802008611E
:102CC0008000086100BF002004F030FC132004F0F5
:102CD0002DFC132004F02AFCF22000904FF08070AD
:102CE0001849086140000861BDF8000016490860F5
:102CF0004FF40000134908618020086180000861DA
:102D000000BF802004F012FC042004F00FFC4020DF
:102D100004F00CFC282004F009FCC12000904FF0C6
:102D200080700849086140000861BDF8000006494C
:102D300008604FF4000003490861802008618000AA
:102D4000086103E0001001400C0C014000BF172097
:102D500004F0ECFB882004F0E9FB882004F0E6FB9B
:102D6000202004F0E3FBE02000904FF080709F49AA
:102D7000086140000861BDF800009D4908604FF4FB
:102D800000009A490861802008618000086100BF46
:102D9000002004F0CBFB0A2004F0C8FB122004F052
:102DA000C5FB102004F0C2FB0E2004F0BFFB202066
:102DB00004F0BCFBCC2004F0B9FB072004F0B6FB08
:102DC000062004F0B3FB0B2004F0B0FB0E2004F04F
:102DD000ADFB0F2004F0AAFB0D2004F0A7FB15208B
:102DE00004F0A4FB102004F0A1FB002004F09EFBE3
:102DF000E12000904FF080707C490861400008613C
:102E0000BDF800007A4908604FF400007749086176
:102E1000802008618000086100BF002004F086FB6C
:102E20000B2004F083FB132004F080FB0D2004F042
:102E30007DFB0E2004F07AFB1B2004F077FB712051
:102E400004F074FB062004F071FB062004F06EFB16
:102E50000A2004F06BFB0F2004F068FB0E2004F046
:102E600065FB0F2004F062FB152004F05FFB0C20D3
:102E700004F05CFB002004F059FB2A2000904FF086
:102E800080705A49086140000861BDF80000584947
:102E900008604FF4000055490861802008618000F7
:102EA000086100BF002004F041FB002004F03EFB5D
:102EB000012004F03BFBDF2004F038FB2B200090C6
:102EC0004FF080704949086140000861BDF800007A
:102ED000474908604FF400004449086180200861B8
:102EE0008000086100BF002004F020FB002004F0F7
:102EF0001DFB032004F01AFB1F2004F017FB3A20EF
:102F000000904FF080703949086140000861BDF8B9
:102F10000000374908604FF4000034490861802000
:102F200008618000086100BF552004F0FFFA3620D8
:102F300000904FF080702D49086140000861BDF895
:102F400000002B4908604FF40000284908618020E8
:102F500008618000086100BF002004F0E7FA11203A
:102F600000904FF080702149086140000861BDF871
:102F700000001F4908604FF400001C4908618020D0
:102F800008618000086100BF7820FFF7C7F829209A
:102F900000904FF080701549086140000861BDF84D
:102FA0000000134908604FF40000104908618020B8
:102FB00008618000086100BF1420FFF7AFF82C20E3
:102FC00000904FF080700949086140000861BDF829
:102FD0000000074908604FF40000044908618020A0
:102FE00008618000086100BF08BD000000100140BA
:102FF0000C0C014008B5ED2000904FF08070FE49A8
:10300000086140000861BDF80000FC4908604FF409
:103010000000F9490861802008618000086100BF54
:10302000012004F083FAFE2004F080FAEE200090E4
:103030004FF08070F049086140000861BDF8000061
:10304000EE4908604FF40000EB49086180200861F8
:103050008000086100BFDE2004F068FA212004F03F
:1030600065FAF12000904FF08070E349086140005C
:103070000861BDF80000E14908604FF40000DE4936
:103080000861802008618000086100BF012004F011
:103090004DFADF2000904FF08070D7490861400062
:1030A0000861BDF80000D54908604FF40000D2491E
:1030B0000861802008618000086100BF102004F0D2
:1030C00035FAC42000904FF08070CB490861400071
:1030D0000861BDF80000C94908604FF40000C64906
:1030E0000861802008618000086100BF8F2004F023
:1030F0001DFAC62000904FF08070BF490861400063
:103100000861BDF80000BD4908604FF40000BA49ED
:103110000861802008618000086100BF002004F081
:1031200005FAE22004F002FAE22004F0FFF9E220BE
:1031300004F0FCF9BF2000904FF08070AE490861A8
:1031400040000861BDF80000AC4908604FF4000081
:10315000A9490861802008618000086100BFAA2099
:1031600004F0E4F9B02000904FF08070A2490861AB
:1031700040000861BDF80000A04908604FF400005D
:103180009D490861802008618000086100BF0D2012
:1031900004F0CCF9002004F0C9F90D2004F0C6F9C0
:1031A000002004F0C3F9112004F0C0F9002004F05D
:1031B000BDF9192004F0BAF9002004F0B7F9212074
:1031C00004F0B4F9002004F0B1F92D2004F0AEF9B8
:1031D000002004F0ABF93D2004F0A8F9002004F031
:1031E000A5F95D2004F0A2F9002004F09FF95D200C
:1031F00004F09CF9002004F099F9B12000904FF000
:1032000080707D49086140000861BDF800007B497D
:1032100008604FF400007849086180200861800050
:10322000086100BF802004F081F9002004F07EF9DD
:103230008B2004F07BF9002004F078F9962004F04C
:1032400075F9002004F072F9B22000904FF0807000
:103250006949086140000861BDF8000067490860DD
:103260004FF4000064490861802008618000086113
:1032700000BF002004F05AF9002004F057F90220A2
:1032800004F054F9002004F051F9032004F04EF941
:10329000002004F04BF9B32000904FF080705649A5
:1032A000086140000861BDF80000544908604FF40F
:1032B000000051490861802008618000086100BF5A
:1032C000002004F033F9002004F030F9002004F06D
:1032D0002DF9002004F02AF9002004F027F900203D
:1032E00004F024F9002004F021F9002004F01EF974
:1032F000002004F01BF9002004F018F9002004F06D
:1033000015F9002004F012F9002004F00FF9002054
:1033100004F00CF9002004F009F9002004F006F98B
:10332000002004F003F9002004F000F9002004F06C
:10333000FDF8002004F0FAF8002004F0F7F800206F
:1033400004F0F4F8002004F0F1F8002004F0EEF8A6
:10335000B42000904FF08070274908614000086158
:10336000BDF80000254908604FF4000022490861BB
:10337000802008618000086100BF8B2004F0D6F82F
:10338000002004F0D3F8962004F0D0F8002004F0D8
:10339000CDF8A12004F0CAF8002004F0C7F8B52049
:1033A00000904FF080701449086140000861BDF83A
:1033B0000000124908604FF400000F4908618020A6
:1033C00008618000086100BF022004F0AFF800200F
:1033D00004F0ACF8032004F0A9F8002004F0A6F8EB
:1033E000042004F0A3F8002004F0A0F8B620009018
:1033F0004FF08070004903E0001001400C0C0140C8
:10340000086140000861BDF80000FE4908604FF403
:103410000000FD490861802008618000086100BF4C
:10342000002004F083F8002004F080F8B72000901A
:103430004FF08070F449086140000861BDF8000059
:10344000F04908604FF40000EF49086180200861EE
:103450008000086100BF002004F068F8002004F03C
:1034600065F83F2004F062F8002004F05FF85E2069
:1034700004F05CF8002004F059F8642004F056F8D9
:10348000002004F053F88C2004F050F8002004F0E1
:103490004DF8AC2004F04AF8002004F047F8DC2096
:1034A00004F044F8002004F041F8702004F03EF8E5
:1034B000002004F03BF8902004F038F8002004F0DD
:1034C00035F8EB2004F032F8002004F02FF8DC206F
:1034D00004F02CF8002004F029F8B82000904FF0F8
:1034E0008070C949086140000861BDF80000C54905
:1034F00008604FF40000C449086180200861800022
:10350000086100BF002004F011F8002004F00EF85C
:10351000002004F00BF8002004F008F8002004F06C
:1035200005F8002004F002F8002003F0FFFF00205F
:1035300003F0FCFFBA2000904FF08070B2490861A0
:1035400040000861BDF80000AE4908604FF400007B
:10355000AD490861802008618000086100BF242017
:1035600003F0E4FF002003F0E1FF002003F0DEFFA2
:10357000002003F0DBFFC12000904FF08070A249D3
:10358000086140000861BDF800009E4908604FF4E2
:1035900000009D490861802008618000086100BF2B
:1035A000202003F0C3FF002003F0C0FF542003F0ED
:1035B000BDFF002003F0BAFFFF2003F0B7FF00209B
:1035C00003F0B4FFC22000904FF080708E49086174
:1035D00040000861BDF800008A4908604FF400000F
:1035E00089490861802008618000086100BF0A20C5
:1035F00003F09CFF002003F099FF042003F096FFE6
:10360000002003F093FFC32000904FF080707E49AC
:10361000086140000861BDF800007A4908604FF475
:10362000000079490861802008618000086100BFBE
:103630003C2003F07BFF002003F078FF3A2003F0EA
:1036400075FF002003F072FF392003F06FFF0020A8
:1036500003F06CFF372003F069FF002003F066FFE2
:103660003C2003F063FF002003F060FF362003F0EE
:103670005DFF002003F05AFF322003F057FF0020C7
:1036800003F054FF2F2003F051FF002003F04EFF02
:103690002C2003F04BFF002003F048FF292003F00B
:1036A00045FF002003F042FF262003F03FFF0020EB
:1036B00003F03CFF242003F039FF002003F036FF25
:1036C000242003F033FF002003F030FF232003F019
:1036D0002DFF002003F02AFF3C2003F027FF0020ED
:1036E00003F024FF362003F021FF002003F01EFF2B
:1036F000322003F01BFF002003F018FF2F2003F0FF
:1037000015FF002003F012FF2C2003F00FFF002014
:1037100003F00CFF292003F009FF002003F006FF4F
:10372000262003F003FF002003F000FF242003F015
:10373000FDFE002003F0FAFE242003F0F7FE002037
:1037400003F0F4FE232003F0F1FE002003F0EEFE70
:10375000C42000904FF080702B4908614000086140
:10376000BDF80000274908604FF4000026490861B1
:10377000802008618000086100BF622003F0D6FE4F
:10378000002003F0D3FE052003F0D0FE002003F05C
:10379000CDFE842003F0CAFE002003F0C7FEF02017
:1037A00003F0C4FE002003F0C1FE182003F0BEFEAB
:1037B000002003F0BBFEA42003F0B8FE002003F0BD
:1037C000B5FE182003F0B2FE002003F0AFFE50203B
:1037D00003F0ACFE002003F0A9FE0C2003F0A6FECF
:1037E000002003F0A3FE172003F0A0FE002003F04A
:1037F0009DFE952003F09AFE002003F097FEF32033
:1038000004E000000C0C01400010014003F08EFEAB
:10381000002003F08BFEE62003F088FE002003F07A
:1038200085FEC52000904FF08070FE490861400081
:103830000861BDF80000FC4908604FF40000F94938
:103840000861802008618000086100BF322003F019
:103850006DFE002003F06AFE442003F067FE0020A6
:1038600003F064FE652003F061FE002003F05EFEBD
:10387000762003F05BFE002003F058FE882003F062
:1038800055FE002003F052FEC62000904FF08070DD
:10389000E449086140000861BDF80000E2490860A1
:1038A0004FF40000DF490861802008618000086152
:1038B00000BF202003F03AFE002003F037FE17205F
:1038C00003F034FE002003F031FE012003F02EFE51
:1038D000002003F02BFEC72000904FF08070D149EC
:1038E000086140000861BDF80000CF4908604FF44E
:1038F0000000CC490861802008618000086100BF99
:10390000002003F013FE002003F010FE002003F05F
:103910000DFE002003F00AFEC82000904FF08070DA
:10392000C049086140000861BDF80000BE49086058
:103930004FF40000BB4908618020086180000861E5
:1039400000BF002003F0F2FD002003F0EFFD002097
:1039500003F0ECFD002003F0E9FDC92000904FF0DA
:103960008070B049086140000861BDF80000AE49B0
:1039700008604FF40000AB490861802008618000B6
:10398000086100BF002003F0D1FD002003F0CEFD50
:10399000002003F0CBFD002003F0C8FD002003F061
:1039A000C5FD002003F0C2FD002003F0BFFD002094
:1039B00003F0BCFD002003F0B9FD002003F0B6FDCC
:1039C000002003F0B3FD002003F0B0FD002003F061
:1039D000ADFD002003F0AAFD002003F0A7FD0020AC
:1039E00003F0A4FDE02000904FF080708D49086145
:1039F00040000861BDF800008B4908604FF40000EA
:103A000088490861802008618000086100BF162095
:103A100003F08CFD002003F089FD1C2003F086FDDF
:103A2000002003F083FD212003F080FD002003F03F
:103A30007DFD362003F07AFD002003F077FD46205F
:103A400003F074FD002003F071FD522003F06EFDC1
:103A5000002003F06BFD642003F068FD002003F0FC
:103A600065FD7A2003F062FD002003F05FFD8B20EE
:103A700003F05CFD002003F059FD992003F056FD92
:103A8000002003F053FDA82003F050FD002003F0B8
:103A90004DFDB92003F04AFD002003F047FDC4208E
:103AA00003F044FD002003F041FDCA2003F03EFD79
:103AB000002003F03BFDD22003F038FD002003F08E
:103AC00035FDD92003F032FD002003F02FFDE0206A
:103AD00003F02CFD002003F029FDF32003F026FD68
:103AE000002003F023FDE12000904FF080704D494D
:103AF000086140000861BDF800004B4908604FF4C0
:103B0000000048490861802008618000086100BF0A
:103B1000162003F00BFD002003F008FD1C2003F02D
:103B200005FD002003F002FD222003F0FFFC002031
:103B300003F0FCFC362003F0F9FC002003F0F6FC57
:103B4000452003F0F3FC002003F0F0FC522003F0CA
:103B5000EDFC002003F0EAFC642003F0E7FC002009
:103B600003F0E4FC7A2003F0E1FC002003F0DEFC2B
:103B70008B2003F0DBFC002003F0D8FC992003F03D
:103B8000D5FC002003F0D2FCA82003F0CFFC0020DD
:103B900003F0CCFCB92003F0C9FC002003F0C6FC04
:103BA000C42003F0C3FC002003F0C0FCCA2003F0D3
:103BB000BDFC002003F0BAFCD22003F0B7FC0020CB
:103BC00003F0B4FCD82003F0B1FC002003F0AEFCFD
:103BD000E02003F0ABFC002003F0A8FCF32003F08E
:103BE000A5FC002003F0A2FCE22000904FF08070C2
:103BF0000C49086140000861BDF800000A490860EE
:103C00004FF40000074908618020086180000861C6
:103C100000BF052003F08AFC002003F087FC0B2086
:103C200004E00000001001400C0C014003F07EFC99
:103C3000002003F07BFC1B2003F078FC002003F045
:103C400075FC342003F072FC002003F06FFC44206C
:103C500003F06CFC002003F069FC4F2003F066FCCD
:103C6000002003F063FC612003F060FC002003F0FF
:103C70005DFC792003F05AFC002003F057FC8820FB
:103C800003F054FC002003F051FC972003F04EFC9D
:103C9000002003F04BFCA62003F048FC002003F0BA
:103CA00045FCB72003F042FC002003F03FFCC2209B
:103CB00003F03CFC002003F039FCC72003F036FC85
:103CC000002003F033FCD12003F030FC002003F08F
:103CD0002DFCD62003F02AFC002003F027FCDD2079
:103CE00003F024FC002003F021FCF32003F01EFC71
:103CF000002003F01BFCE32000904FF08070FE4991
:103D0000086140000861BDF80000FC4908604FF4FC
:103D10000000F9490861802008618000086100BF47
:103D2000052003F003FC002003F000FC0A2003F050
:103D3000FDFB002003F0FAFB1C2003F0F7FB002042
:103D400003F0F4FB332003F0F1FB002003F0EEFB63
:103D5000442003F0EBFB002003F0E8FB502003F0CD
:103D6000E5FB002003F0E2FB622003F0DFFB002014
:103D700003F0DCFB782003F0D9FB002003F0D6FB36
:103D8000882003F0D3FB002003F0D0FB972003F042
:103D9000CDFB002003F0CAFBA62003F0C7FB0020E8
:103DA00003F0C4FBB72003F0C1FB002003F0BEFB0F
:103DB000C22003F0BBFB002003F0B8FBC72003F0D8
:103DC000B5FB002003F0B2FBD12003F0AFFB0020D5
:103DD00003F0ACFBD52003F0A9FB002003F0A6FB09
:103DE000DD2003F0A3FB002003F0A0FBF32003F091
:103DF0009DFB002003F09AFBE42000904FF08070C0
:103E0000BD49086140000861BDF80000BB49086079
:103E10004FF40000B8490861802008618000086103
:103E200000BF012003F082FB002003F07FFB012094
:103E300003F07CFB002003F079FB022003F076FB0B
:103E4000002003F073FB2A2003F070FB002003F036
:103E50006DFB3C2003F06AFB002003F067FB4B2066
:103E600003F064FB002003F061FB5D2003F05EFBC8
:103E7000002003F05BFB742003F058FB002003F0EC
:103E800055FB842003F052FB002003F04FFB9320EE
:103E900003F04CFB002003F049FBA22003F046FB9B
:103EA000002003F043FBB32003F040FB002003F0AD
:103EB0003DFBBE2003F03AFB002003F037FBC4209B
:103EC00003F034FB002003F031FBCD2003F02EFB88
:103ED000002003F02BFBD32003F028FB002003F08D
:103EE00025FBDD2003F022FB002003F01FFBF32065
:103EF00003F01CFB002003F019FBE52000904FF0BD
:103F000080707D49086140000861BDF800007B4970
:103F100008604FF400007849086180200861800043
:103F2000086100BF002003F001FB002003F0FEFA4F
:103F3000002003F0FBFA002003F0F8FA022003F05F
:103F4000F5FA002003F0F2FA292003F0EFFA00203E
:103F500003F0ECFA3C2003F0E9FA002003F0E6FA63
:103F60004B2003F0E3FA002003F0E0FA5D2003F0B9
:103F7000DDFA002003F0DAFA742003F0D7FA00200B
:103F800003F0D4FA842003F0D1FA002003F0CEFA33
:103F9000932003F0CBFA002003F0C8FAA22003F02C
:103FA000C5FA002003F0C2FAB32003F0BFFA0020E4
:103FB00003F0BCFABE2003F0B9FA002003F0B6FA11
:103FC000C42003F0B3FA002003F0B0FACD2003F0D0
:103FD000ADFA002003F0AAFAD32003F0A7FA0020DC
:103FE00003F0A4FADC2003F0A1FA002003F09EFA0B
:103FF000F32003F09BFA002003F098FAE6200090EB
:104000004FF080703C49086140000861BDF8000035
:104010003A4908604FF40000374908618020086180
:104020008000086100BF112003F080FA002003F037
:104030007DFA342003F07AFA002003F077FA562054
:1040400003F074FA002003F071FA762003F06EFAA0
:10405000002003F06BFA772003F068FA002003F0E9
:1040600065FA662003F062FA002003F05FFA882008
:1040700003F05CFA002003F059FA992003F056FA95
:10408000002003F053FABB2003F050FA002003F0A5
:104090004DFA992003F04AFA002003F047FA66200F
:1040A00003F044FA002003F041FA552003F03EFAF1
:1040B000002003F03BFA552003F038FA002003F00B
:1040C00035FA452003F032FA002003F02FFA43209E
:1040D00003F02CFA002003F029FA442003F026FA1A
:1040E000002003F023FAE72000904FF0807002498F
:1040F00008614000086103E0001001400C0C014021
:10410000BDF80000FE4908604FF40000FD49086159
:10411000802008618000086100BF322003F006FAA9
:10412000002003F003FA552003F000FA002003F00A
:10413000FDF9762003F0FAF9002003F0F7F9662084
:1041400003F0F4F9002003F0F1F9672003F0EEF931
:10415000002003F0EBF9672003F0E8F9002003F0FA
:10416000E5F9872003F0E2F9002003F0DFF9992058
:1041700003F0DCF9002003F0D9F9BB2003F0D6F9F5
:10418000002003F0D3F9992003F0D0F9002003F0C8
:10419000CDF9772003F0CAF9002003F0C7F94420D5
:1041A00003F0C4F9002003F0C1F9562003F0BEF972
:1041B000002003F0BBF9232003F0B8F9002003F03E
:1041C000B5F9332003F0B2F9002003F0AFF9452030
:1041D00003F0ACF9002003F0A9F9E82000904FF0BB
:1041E0008070C849086140000861BDF80000C449FA
:1041F00008604FF40000C349086180200861800016
:10420000086100BF002003F091F9002003F08EF94F
:10421000992003F08BF9002003F088F9872003F040
:1042200085F9002003F082F9882003F07FF900204F
:1042300003F07CF9772003F079F9002003F076F998
:10424000662003F073F9002003F070F9882003F072
:104250006DF9002003F06AF9AA2003F067F9002045
:1042600003F064F9BB2003F061F9002003F05EF96C
:10427000992003F05BF9002003F058F9662003F061
:1042800055F9002003F052F9552003F04FF90020B2
:1042900003F04CF9552003F049F9002003F046F9EA
:1042A000442003F043F9002003F040F9442003F0D8
:1042B0003DF9002003F03AF9552003F037F90020CA
:1042C00003F034F9E92000904FF080708D490861C7
:1042D00040000861BDF80000894908604FF4000003
:1042E00088490861802008618000086100BFAA2019
:1042F00003F01CF9002003F019F9002003F016F96F
:10430000002003F013F9002000904FF080707D49E9
:10431000086140000861BDF80000794908604FF469
:10432000000078490861802008618000086100BFB2
:10433000AA2003F0FBF8CF2000904FF08070714965
:10434000086140000861BDF800006D4908604FF445
:1043500000006C490861802008618000086100BF8E
:10436000002003F0E3F8002003F0E0F8002003F061
:10437000DDF8002003F0DAF8002003F0D7F8002081
:1043800003F0D4F8002003F0D1F8002003F0CEF8B9
:10439000002003F0CBF8002003F0C8F8002003F061
:1043A000C5F8002003F0C2F8002003F0BFF8002099
:1043B00003F0BCF8002003F0B9F8002003F0B6F8D1
:1043C000002003F0B3F8F02000904FF080704D49CA
:1043D000086140000861BDF80000494908604FF4D9
:1043E000000048490861802008618000086100BF22
:1043F000002003F09BF8502003F098F8002003F011
:1044000095F8002003F092F8002003F08FF8F320D5
:1044100000904FF080703B49086140000861BDF892
:104420000000374908604FF40000364908618020D9
:1044300008618000086100BF002003F077F8F920D0
:1044400000904FF080702F49086140000861BDF86E
:1044500000002B4908604FF400002A4908618020C1
:1044600008618000086100BF062003F05FF810209B
:1044700003F05CF8292003F059F8002003F056F807
:104480003A2000904FF080701E490861400008619A
:10449000BDF800001A4908604FF40000194908618E
:1044A000802008618000086100BF552003F03EF8BD
:1044B000112000904FF0807012490861400008619F
:1044C000BDF800000E4908604FF400000D49086176
:1044D000802008618000086100BF6420FDF71EFE97
:1044E000292000904FF08070064908614000086163
:1044F000BDF80000024908604FF40000014903E0E4
:104500000C0C01400010014008618020086180000F
:10451000086100BF352000904FF0807008614000B6
:104520000861BDF80000364908604FF400003549C5
:104530000861802008618000086100BF002002F04F
:10454000F5FF512000904FF080702E490861400027
:104550000861BDF800002A4908604FF400002949AD
:104560000861802008618000086100BFFF2002F020
:10457000DDFF532000904FF0807022490861400019
:104580000861BDF800001E4908604FF400001D4995
:104590000861802008618000086100BF2C2002F0C3
:1045A000C5FF552000904FF080701649086140000B
:1045B0000861BDF80000124908604FF4000011497D
:1045C0000861802008618000086100BF822002F03D
:1045D000ADFF2C2000904FF080700A490861400028
:1045E0000861BDF80000064908604FF40000054965
:1045F0000861802008618000086100BF08BD0000DC
:104600000C0C01400010014008B555214FF47040DA
:1046100002F0A0FFAA214FF2010002F09BFF5221FD
:104620004FF2020002F096FF08214FF2030002F061
:1046300091FF01214FF2040002F08CFF0D214FF495
:10464000304002F087FF0D214BF2010002F082FFA3
:104650000D214BF2020002F07DFF34214FF4364071
:1046600002F078FF34214BF2016002F073FF342135
:104670004BF2026002F06EFF0D214FF4314002F068
:1046800069FF0D214BF2011002F064FF0D214BF286
:10469000021002F05FFF34214FF4374002F05AFF5E
:1046A00034214BF2017002F055FF34214BF20270BD
:1046B00002F050FF00214FF4324002F04BFF002186
:1046C0004BF2012002F046FF00214BF2022002F0E3
:1046D00041FF24214FF4384002F03CFF24214BF6E7
:1046E000010002F037FF24214BF6020002F032FFF6
:1046F00001214FF43F4002F02DFF0F214FF43340D2
:1047000002F028FF0F214BF2013002F023FF0F21AE
:104710004BF2023002F01EFF34214FF4394002F018
:1047200019FF34214BF6011002F014FF34214BF62F
:10473000021002F00FFF08214FF4354002F00AFF8B
:1047400008214BF2015002F005FF08214BF2025004
:1047500002F000FF03214FF4424002F0FBFE24214F
:104760004FF43A4002F0F6FE24214BF6012002F00D
:10477000F1FE24214BF6022002F0ECFE00214FF462
:104780003C4002F0E7FE78214BF6014002F0E2FEE9
:1047900000214BF6024002F0DDFE00214FF43D40C7
:1047A00002F0D8FE78214BF6015002F0D3FE002132
:1047B0004BF6025002F0CEFE00214FF43E4002F0D4
:1047C000C9FE64214BF6016002F0C4FE00214FF4E3
:1047D000514002F0BFFE33214DF2011002F0BAFE4B
:1047E00000214DF2021002F0B5FE34214DF203100B
:1047F00002F0B0FE00214DF2041002F0ABFE3A21AF
:104800004DF2051002F0A6FE00214DF2061002F056
:10481000A1FE4A214DF2071002F09CFE00214DF24C
:10482000081002F097FE5C214DF2091002F092FE92
:1048300000214DF20A1002F08DFE81214DF20B1085
:1048400002F088FE00214DF20C1002F083FEA6213A
:104850004DF20D1002F07EFE00214DF20E1002F01E
:1048600079FEE5214DF20F1002F074FE01214DF2A8
:10487000101002F06FFE13214DF2111002F06AFECB
:1048800001214DF2121002F065FE54214DF2131079
:1048900002F060FE01214DF2141002F05BFE822155
:1048A0004DF2151002F056FE01214DF2161002F0E5
:1048B00051FECA214DF2171002F04CFE02214DF2BA
:1048C000181002F047FE00214DF2191002F042FECE
:1048D00002214DF21A1002F03DFE01214DF21B1093
:1048E00002F038FE02214DF21C1002F033FE34219A
:1048F0004DF21D1002F02EFE02214DF21E1002F0AC
:1049000029FE67214DF21F1002F024FE02214DF214
:10491000201002F01FFE84214DF2211002F01AFE39
:1049200002214DF2221002F015FEA4214DF22310B7
:1049300002F010FE02214DF2241002F00BFEB7210E
:104940004DF2251002F006FE02214DF2261002F073
:1049500001FECF214DF2271002F0FCFD02214DF2A5
:10496000281002F0F7FDDE214DF2291002F0F2FDD1
:1049700002214DF22A1002F0EDFDF2214DF22B1032
:1049800002F0E8FD02214DF22C1002F0E3FDFE21C1
:104990004DF22D1002F0DEFD03214DF22E1002F03B
:1049A000D9FD10214DF22F1002F0D4FD03214DF25C
:1049B000301002F0CFFD33214DF2311002F0CAFD6C
:1049C00003214DF2321002F0C5FD6D214DF233107E
:1049D00002F0C0FD00214FF4524002F0BBFD332134
:1049E0004DF2012002F0B6FD00214DF2022002F04E
:1049F000B1FD34214DF2032002F0ACFD00214DF257
:104A0000042002F0A7FD3A214DF2052002F0A2FD9C
:104A100000214DF2062002F09DFD4A214DF20720B3
:104A200002F098FD00214DF2082002F093FD5C2178
:104A30004DF2092002F08EFD00214DF20A2002F015
:104A400089FD81214DF20B2002F084FD00214DF201
:104A50000C2002F07FFDA6214DF20D2002F07AFD20
:104A600000214DF20E2002F075FDE5214DF20F20E0
:104A700002F070FD01214DF2102002F06BFD1321B8
:104A80004DF2112002F066FD01214DF2122002F0DC
:104A900061FD54214DF2132002F05CFD01214DF225
:104AA000142002F057FD82214DF2152002F052FD34
:104AB00001214DF2162002F04DFDCA214DF21720C2
:104AC00002F048FD02214DF2182002F043FD0021C2
:104AD0004DF2192002F03EFD02214DF21A2002F0A3
:104AE00039FD01214DF21B2002F034FD02214DF26F
:104AF0001C2002F02FFD34214DF21D2002F02AFD72
:104B000002214DF21E2002F025FD67214DF21F20EB
:104B100002F020FD02214DF2202002F01BFD842135
:104B20004DF2212002F016FD02214DF2222002F06A
:104B300011FDA4214DF2232002F00CFD02214DF2C3
:104B4000242002F007FDB7214DF2252002F002FDDE
:104B500002214DF2262002F0FDFCCF214DF227204C
:104B600002F0F8FC02214DF2282002F0F3FCDE21D5
:104B70004DF2292002F0EEFC02214DF22A2002F033
:104B8000E9FCF2214DF22B2002F0E4FC02214DF26F
:104B90002C2002F0DFFCFE214DF22D2002F0DAFC89
:104BA00003214DF22E2002F0D5FC10214DF22F20D2
:104BB00002F0D0FC03214DF2302002F0CBFC332177
:104BC0004DF2312002F0C6FC03214DF2322002F0FA
:104BD000C1FC6D214DF2332002F0BCFC00214FF4EA
:104BE000534002F0B7FC33214DF2013002F0B2FC29
:104BF00000214DF2023002F0ADFC34214DF20330C1
:104C000002F0A8FC00214DF2043002F0A3FC3A218E
:104C10004DF2053002F09EFC00214DF2063002F00C
:104C200099FC4A214DF2073002F094FC00214DF22C
:104C3000083002F08FFC5C214DF2093002F08AFC52
:104C400000214DF20A3002F085FC81214DF20B303B
:104C500002F080FC00214DF20C3002F07BFCA6211A
:104C60004DF20D3002F076FC00214DF20E3002F0D4
:104C700071FCE5214DF20F3002F06CFC01214DF288
:104C8000103002F067FC13214DF2113002F062FC8B
:104C900001214DF2123002F05DFC54214DF213302F
:104CA00002F058FC01214DF2143002F053FC822135
:104CB0004DF2153002F04EFC01214DF2163002F09B
:104CC00049FCCA214DF2173002F044FC02214DF29A
:104CD000183002F03FFC00214DF2193002F03AFC8E
:104CE00002214DF21A3002F035FC01214DF21B3049
:104CF00002F030FC02214DF21C3002F02BFC34217A
:104D00004DF21D3002F026FC02214DF21E3002F061
:104D100021FC67214DF21F3002F01CFC02214DF2F4
:104D2000203002F017FC84214DF2213002F012FCF9
:104D300002214DF2223002F00DFCA4214DF223306D
:104D400002F008FC02214DF2243002F003FCB721EE
:104D50004DF2253002F0FEFB02214DF2263002F02A
:104D6000F9FBCF214DF2273002F0F4FB02214DF286
:104D7000283002F0EFFBDE214DF2293002F0EAFB91
:104D800002214DF22A3002F0E5FBF2214DF22B30E8
:104D900002F0E0FB02214DF22C3002F0DBFBFE21A1
:104DA0004DF22D3002F0D6FB03214DF22E3002F0F1
:104DB000D1FB10214DF22F3002F0CCFB03214DF23C
:104DC000303002F0C7FB33214DF2313002F0C2FB2C
:104DD00003214DF2323002F0BDFB6D214DF2333034
:104DE00002F0B8FB00214FF4544002F0B3FB332132
:104DF0004DF2014002F0AEFB00214DF2024002F004
:104E0000A9FB34214DF2034002F0A4FB00214DF236
:104E1000044002F09FFB3A214DF2054002F09AFB5C
:104E200000214DF2064002F095FB4A214DF2074069
:104E300002F090FB00214DF2084002F08BFB5C2158
:104E40004DF2094002F086FB00214DF20A4002F0CB
:104E500081FB81214DF20B4002F07CFB00214DF2E1
:104E60000C4002F077FBA6214DF20D4002F072FBE0
:104E700000214DF20E4002F06DFBE5214DF20F4096
:104E800002F068FB01214DF2104002F063FB132198
:104E90004DF2114002F05EFB01214DF2124002F092
:104EA00059FB54214DF2134002F054FB01214DF205
:104EB000144002F04FFB82214DF2154002F04AFBF4
:104EC00001214DF2164002F045FBCA214DF2174078
:104ED00002F040FB02214DF2184002F03BFB0021A2
:104EE0004DF2194002F036FB02214DF21A4002F059
:104EF00031FB01214DF21B4002F02CFB02214DF24F
:104F00001C4002F027FB34214DF21D4002F022FB31
:104F100002214DF21E4002F01DFB67214DF21F40A1
:104F200002F018FB02214DF2204002F013FB842115
:104F30004DF2214002F00EFB02214DF2224002F020
:104F400009FBA4214DF2234002F004FB02214DF2A3
:104F5000244002F0FFFAB7214DF2254002F0FAFAA0
:104F600002214DF2264002F0F5FACF214DF2274002
:104F700002F0F0FA02214DF2284002F0EBFADE21B5
:104F80004DF2294002F0E6FA02214DF22A4002F0E9
:104F9000E1FAF2214DF22B4002F0DCFA02214DF24F
:104FA0002C4002F0D7FAFE214DF22D4002F0D2FA49
:104FB00003214DF22E4002F0CDFA10214DF22F4088
:104FC00002F0C8FA03214DF2304002F0C3FA332157
:104FD0004DF2314002F0BEFA03214DF2324002F0B0
:104FE000B9FA6D214DF2334002F0B4FA00214FF4CA
:104FF000554002F0AFFA33214DF2015002F0AAFA07
:1050000000214DF2025002F0A5FA34214DF2035076
:1050100002F0A0FA00214DF2045002F09BFA3A216E
:105020004DF2055002F096FA00214DF2065002F0C2
:1050300091FA4A214DF2075002F08CFA00214DF20C
:10504000085002F087FA5C214DF2095002F082FA12
:1050500000214DF20A5002F07DFA81214DF20B50F1
:1050600002F078FA00214DF20C5002F073FAA621FA
:105070004DF20D5002F06EFA00214DF20E5002F08A
:1050800069FAE5214DF20F5002F064FA01214DF268
:10509000105002F05FFA13214DF2115002F05AFA4B
:1050A00001214DF2125002F055FA54214DF21350E5
:1050B00002F050FA01214DF2145002F04BFA822115
:1050C0004DF2155002F046FA01214DF2165002F051
:1050D00041FACA214DF2175002F03CFA02214DF27A
:1050E000185002F037FA00214DF2195002F032FA4E
:1050F00002214DF21A5002F02DFA01214DF21B50FF
:1051000002F028FA02214DF21C5002F023FA342159
:105110004DF21D5002F01EFA02214DF21E5002F017
:1051200019FA67214DF21F5002F014FA02214DF2D4
:10513000205002F00FFA84214DF2215002F00AFAB9
:1051400002214DF2225002F005FAA4214DF2235023
:1051500002F000FA02214DF2245002F0FBF9B721CF
:105160004DF2255002F0F6F902214DF2265002F0E0
:10517000F1F9CF214DF2275002F0ECF902214DF266
:10518000285002F0E7F9DE214DF2295002F0E2F951
:1051900002214DF22A5002F0DDF9F2214DF22B509E
:1051A00002F0D8F902214DF22C5002F0D3F9FE2181
:1051B0004DF22D5002F0CEF903214DF22E5002F0A7
:1051C000C9F910214DF22F5002F0C4F903214DF21C
:1051D000305002F0BFF933214DF2315002F0BAF9EC
:1051E00003214DF2325002F0B5F96D214DF23350EA
:1051F00002F0B0F900214FF4564002F0ABF9332130
:105200004DF2016002F0A6F900214DF2026002F0B9
:10521000A1F934214DF2036002F09CF900214DF216
:10522000046002F097F93A214DF2056002F092F91C
:1052300000214DF2066002F08DF94A214DF207601F
:1052400002F088F900214DF2086002F083F95C2138
:105250004DF2096002F07EF900214DF20A6002F081
:1052600079F981214DF20B6002F074F900214DF2C1
:105270000C6002F06FF9A6214DF20D6002F06AF9A0
:1052800000214DF20E6002F065F9E5214DF20F604C
:1052900002F060F901214DF2106002F05BF9132178
:1052A0004DF2116002F056F901214DF2126002F048
:1052B00051F954214DF2136002F04CF901214DF2E5
:1052C000146002F047F982214DF2156002F042F9B4
:1052D00001214DF2166002F03DF9CA214DF217602E
:1052E00002F038F902214DF2186002F033F9002182
:1052F0004DF2196002F02EF902214DF21A6002F00F
:1053000029F901214DF21B6002F024F902214DF22E
:105310001C6002F01FF934214DF21D6002F01AF9F1
:1053200002214DF21E6002F015F967214DF21F6057
:1053300002F010F902214DF2206002F00BF98421F5
:105340004DF2216002F006F902214DF2226002F0D6
:1053500001F9A4214DF2236002F0FCF802214DF284
:10536000246002F0F7F8B7214DF2256002F0F2F860
:1053700002214DF2266002F0EDF8CF214DF22760B8
:1053800002F0E8F802214DF2286002F0E3F8DE2195
:105390004DF2296002F0DEF802214DF22A6002F09F
:1053A000D9F8F2214DF22B6002F0D4F802214DF22F
:1053B0002C6002F0CFF8FE214DF22D6002F0CAF809
:1053C00003214DF22E6002F0C5F810214DF22F603E
:1053D00002F0C0F803214DF2306002F0BBF8332137
:1053E0004DF2316002F0B6F803214DF2326002F066
:1053F000B1F86D214DF2336002F0ACF855214FF455
:10540000704002F0A7F8AA214FF2010002F0A2F8C2
:1054100052214FF2020002F09DF808214FF20300E2
:1054200002F098F800214FF2040002F093F8CC212A
:105430004FF4314002F08EF800214BF2011002F0DF
:1054400089F805214FF4364002F084F870214FF4BA
:10545000374002F07FF870214BF2017002F07AF8C9
:1054600001214FF4384002F075F803214BF601009A
:1054700002F070F803214BF6020002F06BF80321F2
:105480004BF6030002F066F802214FF43C4002F0B4
:1054900061F800214BF6014002F05CF800214BF668
:1054A000024002F057F8D0214FF4494002F052F880
:1054B00002214CF6011002F04DF850214CF602107A
:1054C00002F048F850214CF6031002F043F8502146
:1054D0004CF6041002F03EF800214FF4545002F054
:1054E00039F855214FF4685002F034F84FF48850E1
:1054F00000904FF080701549086140000861BDF8C8
:105500000000134908604FF4000010490861802032
:1055100008618000086100BF7820FCF709FE4FF4A5
:10552000245000904FF080700849086140000861E5
:10553000BDF80000064908604FF400000349086107
:10554000802008618000086100BF08BD0010014094
:105550000C0C014008B5E22000904FF08070D64955
:10556000086140000861BDF80000D44908604FF4AC
:105570000000D1490861802008618000086100BFF7
:105580001D2001F0D3FF022001F0D0FF042001F024
:10559000CDFF6420FCF7CCFDE02000904FF0807040
:1055A000C549086140000861BDF80000C3490860B2
:1055B0004FF40000C0490861802008618000086144
:1055C00000BF012001F0B2FF0A20FCF7A7FDE02098
:1055D00000904FF08070B849086140000861BDF844
:1055E0000000B64908604FF40000B349086180200C
:1055F00008618000086100BF032001F097FF0C20C4
:10560000FCF78CFD012000900006AB4908614000CA
:105610000861BDF80000A94908604FF40000A649E0
:105620000861802008618000086100BF0A20FCF743
:1056300075FDE62000904FF080709F4908614000A2
:105640000861BDF800009D4908604FF400009A49C8
:105650000861802008618000086100BF2F2001F0F0
:1056600065FFFF2001F062FFFF2001F05FFFB02027
:1056700000904FF080709049086140000861BDF8CB
:1056800000008E4908604FF400008B4908618020BB
:1056900008618000086100BF202001F047FF002062
:1056A00001F044FF032001F041FF40F21F3001F000
:1056B0003DFF012001F03AFF40F2DF1001F036FF1C
:1056C000002001F033FFB42000904FF080707A4941
:1056D000086140000861BDF80000784908604FF497
:1056E000000075490861802008618000086100BFE2
:1056F000042001F01BFF40F21F4001F017FF0020C3
:1057000001F014FF2E2001F011FF002001F00EFF28
:10571000002001F00BFF002001F008FF002001F045
:1057200005FFB62000904FF080706349086140008B
:105730000861BDF80000614908604FF400005E494F
:105740000861802008618000086100BF022001F02C
:10575000EDFE4FF4037001F0E9FE002001F0E6FEDB
:10576000172001F0E3FE152001F0E0FE002001F01B
:10577000DDFE002001F0DAFEF02000904FF0807096
:105780004D49086140000861BDF800004B490860C0
:105790004FF40000484908618020086180000861DA
:1057A00000BF032001F0C2FE292000904FF080705E
:1057B0004149086140000861BDF800003F490860A8
:1057C0004FF400003C4908618020086180000861B6
:1057D00000BFD02000904FF0807008614000086149
:1057E000BDF80000354908604FF4000032490861F7
:1057F000802008618000086100BF002001F096FE53
:10580000BE2000904FF080702B4908614000086175
:10581000BDF80000294908604FF4000026490861DE
:10582000802008618000086100BF052001F07EFE35
:10583000FE2001F07BFE012001F078FE002001F047
:1058400075FE002001F072FE002001F06FFEB8200E
:1058500000904FF080701849086140000861BDF861
:105860000000164908604FF40000134908618020C9
:1058700008618000086100BF032001F057FE01208D
:1058800001F054FEBA2000904FF080700A49086180
:1058900040000861BDF80000084908604FF40000AE
:1058A00005490861802008618000086100BF01206F
:1058B00001F03CFE08BD0000001001400C0C01404E
:1058C00008B5112000904FF08070FE49086140003B
:1058D0000861BDF80000FC4908604FF40000F94978
:1058E0000861802008618000086100BF7820FCF713
:1058F00015FC362000904FF08070F249086140009E
:105900000861BDF80000F04908604FF40000ED495F
:105910000861802008618000086100BF002001F05C
:1059200005FE3A2000904FF08070E6490861400083
:105930000861BDF80000E44908604FF40000E14947
:105940000861802008618000086100BF052001F027
:10595000EDFDB22000904FF08070DA490861400000
:105960000861BDF80000D84908604FF40000D5492F
:105970000861802008618000086100BF0C2001F0F0
:10598000D5FD0C2001F0D2FD002001F0CFFD332029
:1059900001F0CCFD332001F0C9FDB72000904FF09D
:1059A0008070C849086140000861BDF80000C64920
:1059B00008604FF40000C34908618020086180003E
:1059C000086100BF352001F0B1FDBB2000904FF011
:1059D0008070BC49086140000861BDF80000BA4908
:1059E00008604FF40000B74908618020086180001A
:1059F000086100BF322001F099FDC02000904FF0F7
:105A00008070B049086140000861BDF80000AE49EF
:105A100008604FF40000AB490861802008618000F5
:105A2000086100BF0C2001F081FDC22000904FF002
:105A30008070A449086140000861BDF80000A249D7
:105A400008604FF400009F490861802008618000D1
:105A5000086100BF012001F069FDC32000904FF0F4
:105A600080709849086140000861BDF800009649BF
:105A700008604FF4000093490861802008618000AD
:105A8000086100BF102001F051FDC42000904FF0CC
:105A900080708C49086140000861BDF800008A49A7
:105AA00008604FF400008749086180200861800089
:105AB000086100BF202001F039FDC62000904FF0A2
:105AC00080708049086140000861BDF800007E498F
:105AD00008604FF400007B49086180200861800065
